{
  "contractName": "Tracker",
  "abi": [
    {
      "constant": true,
      "inputs": [
        {
          "internalType": "bytes32",
          "name": "",
          "type": "bytes32"
        }
      ],
      "name": "tracks",
      "outputs": [
        {
          "internalType": "uint256",
          "name": "count",
          "type": "uint256"
        }
      ],
      "payable": false,
      "stateMutability": "view",
      "type": "function"
    },
    {
      "constant": true,
      "inputs": [],
      "name": "producer",
      "outputs": [
        {
          "internalType": "address",
          "name": "",
          "type": "address"
        }
      ],
      "payable": false,
      "stateMutability": "view",
      "type": "function"
    },
    {
      "constant": true,
      "inputs": [
        {
          "internalType": "address",
          "name": "",
          "type": "address"
        }
      ],
      "name": "isParticipant",
      "outputs": [
        {
          "internalType": "bool",
          "name": "",
          "type": "bool"
        }
      ],
      "payable": false,
      "stateMutability": "view",
      "type": "function"
    },
    {
      "inputs": [
        {
          "internalType": "address",
          "name": "_producer",
          "type": "address"
        }
      ],
      "payable": false,
      "stateMutability": "nonpayable",
      "type": "constructor"
    },
    {
      "anonymous": false,
      "inputs": [
        {
          "indexed": true,
          "internalType": "address",
          "name": "_participant",
          "type": "address"
        }
      ],
      "name": "ParticipantAdded",
      "type": "event"
    },
    {
      "anonymous": false,
      "inputs": [
        {
          "indexed": true,
          "internalType": "address",
          "name": "_participant",
          "type": "address"
        },
        {
          "indexed": true,
          "internalType": "bytes32",
          "name": "_uuid",
          "type": "bytes32"
        },
        {
          "indexed": false,
          "internalType": "uint256",
          "name": "_count",
          "type": "uint256"
        },
        {
          "indexed": false,
          "internalType": "bytes32",
          "name": "_action",
          "type": "bytes32"
        },
        {
          "indexed": false,
          "internalType": "bytes32",
          "name": "_timestamp",
          "type": "bytes32"
        }
      ],
      "name": "StepAdded",
      "type": "event"
    },
    {
      "constant": false,
      "inputs": [
        {
          "internalType": "address",
          "name": "_participant",
          "type": "address"
        }
      ],
      "name": "addParticipant",
      "outputs": [],
      "payable": false,
      "stateMutability": "nonpayable",
      "type": "function"
    },
    {
      "constant": false,
      "inputs": [
        {
          "internalType": "bytes32",
          "name": "_uuid",
          "type": "bytes32"
        },
        {
          "internalType": "bytes32",
          "name": "_action",
          "type": "bytes32"
        },
        {
          "internalType": "bytes32",
          "name": "_timestamp",
          "type": "bytes32"
        }
      ],
      "name": "addStep",
      "outputs": [],
      "payable": false,
      "stateMutability": "nonpayable",
      "type": "function"
    },
    {
      "constant": true,
      "inputs": [
        {
          "internalType": "bytes32",
          "name": "_uuid",
          "type": "bytes32"
        },
        {
          "internalType": "uint256",
          "name": "_index",
          "type": "uint256"
        }
      ],
      "name": "getStep",
      "outputs": [
        {
          "internalType": "address",
          "name": "participant_",
          "type": "address"
        },
        {
          "internalType": "bytes32",
          "name": "action_",
          "type": "bytes32"
        },
        {
          "internalType": "bytes32",
          "name": "timestamp_",
          "type": "bytes32"
        }
      ],
      "payable": false,
      "stateMutability": "view",
      "type": "function"
    }
  ],
  "bytecode": "0x608060405234801561001057600080fd5b50604051610b61380380610b618339818101604052602081101561003357600080fd5b8101908080519060200190929190505050600073ffffffffffffffffffffffffffffffffffffffff168173ffffffffffffffffffffffffffffffffffffffff1614156100e7576040517f08c379a00000000000000000000000000000000000000000000000000000000081526004018080602001828103825260118152602001807f5f70726f6475636572206973207a65726f00000000000000000000000000000081525060200191505060405180910390fd5b806000806101000a81548173ffffffffffffffffffffffffffffffffffffffff021916908373ffffffffffffffffffffffffffffffffffffffff16021790555050610a2a806101376000396000f3fe608060405234801561001057600080fd5b50600436106100625760003560e01c8063081090091461006757806337612672146100a9578063929066f5146100f3578063a2787bd01461014f578063bc1de677146101d5578063dfafe10f14610217575b600080fd5b6100936004803603602081101561007d57600080fd5b810190808035906020019092919050505061025b565b6040518082815260200191505060405180910390f35b6100b1610279565b604051808273ffffffffffffffffffffffffffffffffffffffff1673ffffffffffffffffffffffffffffffffffffffff16815260200191505060405180910390f35b6101356004803603602081101561010957600080fd5b81019080803573ffffffffffffffffffffffffffffffffffffffff16906020019092919050505061029e565b604051808215151515815260200191505060405180910390f35b6101856004803603604081101561016557600080fd5b8101908080359060200190929190803590602001909291905050506102be565b604051808473ffffffffffffffffffffffffffffffffffffffff1673ffffffffffffffffffffffffffffffffffffffff168152602001838152602001828152602001935050505060405180910390f35b610215600480360360608110156101eb57600080fd5b8101908080359060200190929190803590602001909291908035906020019092919050505061038e565b005b6102596004803603602081101561022d57600080fd5b81019080803573ffffffffffffffffffffffffffffffffffffffff1690602001909291905050506107b6565b005b60026020528060005260406000206000915090508060000154905081565b6000809054906101000a900473ffffffffffffffffffffffffffffffffffffffff1681565b60016020528060005260406000206000915054906101000a900460ff1681565b60008060006102cb6109b8565b6002600087815260200190815260200160002060010185815481106102ec57fe5b90600052602060002090600302016040518060600160405290816000820160009054906101000a900473ffffffffffffffffffffffffffffffffffffffff1673ffffffffffffffffffffffffffffffffffffffff1673ffffffffffffffffffffffffffffffffffffffff168152602001600182015481526020016002820154815250509050806000015181602001518260400151935093509350509250925092565b600160003373ffffffffffffffffffffffffffffffffffffffff1673ffffffffffffffffffffffffffffffffffffffff16815260200190815260200160002060009054906101000a900460ff168061043257506000809054906101000a900473ffffffffffffffffffffffffffffffffffffffff1673ffffffffffffffffffffffffffffffffffffffff163373ffffffffffffffffffffffffffffffffffffffff16145b6104a4576040517f08c379a000000000000000000000000000000000000000000000000000000000815260040180806020018281038252601d8152602001807f6d73672e73656e6465722063616e6e6f7420706172746963697061746500000081525060200191505060405180910390fd5b60006002600085815260200190815260200160002090506000816000015414158061051b57506000809054906101000a900473ffffffffffffffffffffffffffffffffffffffff1673ffffffffffffffffffffffffffffffffffffffff163373ffffffffffffffffffffffffffffffffffffffff16145b61058d576040517f08c379a00000000000000000000000000000000000000000000000000000000081526004018080602001828103825260148152602001807f5f7575696420646f6573206e6f7420657869737400000000000000000000000081525060200191505060405180910390fd5b6000831415610604576040517f08c379a00000000000000000000000000000000000000000000000000000000081526004018080602001828103825260108152602001807f5f616374696f6e20697320656d7074790000000000000000000000000000000081525060200191505060405180910390fd5b600082141561067b576040517f08c379a00000000000000000000000000000000000000000000000000000000081526004018080602001828103825260138152602001807f5f74696d657374616d7020697320656d7074790000000000000000000000000081525060200191505060405180910390fd5b80600001600081548092919060010191905055508060010160405180606001604052803373ffffffffffffffffffffffffffffffffffffffff168152602001858152602001848152509080600181540180825580915050906001820390600052602060002090600302016000909192909190915060008201518160000160006101000a81548173ffffffffffffffffffffffffffffffffffffffff021916908373ffffffffffffffffffffffffffffffffffffffff1602179055506020820151816001015560408201518160020155505050833373ffffffffffffffffffffffffffffffffffffffff167f49bc4e3ecedab8957b30a3ea9d9165901ccc0be47cc844096a76a490e0b204c08360000154868660405180848152602001838152602001828152602001935050505060405180910390a350505050565b6000809054906101000a900473ffffffffffffffffffffffffffffffffffffffff1673ffffffffffffffffffffffffffffffffffffffff163373ffffffffffffffffffffffffffffffffffffffff1614610878576040517f08c379a000000000000000000000000000000000000000000000000000000000815260040180806020018281038252601a8152602001807f6d73672e73656e646572206973206e6f742070726f647563657200000000000081525060200191505060405180910390fd5b600073ffffffffffffffffffffffffffffffffffffffff168173ffffffffffffffffffffffffffffffffffffffff16141561091b576040517f08c379a00000000000000000000000000000000000000000000000000000000081526004018080602001828103825260148152602001807f5f7061727469636970616e74206973207a65726f00000000000000000000000081525060200191505060405180910390fd5b60018060008373ffffffffffffffffffffffffffffffffffffffff1673ffffffffffffffffffffffffffffffffffffffff16815260200190815260200160002060006101000a81548160ff0219169083151502179055508073ffffffffffffffffffffffffffffffffffffffff167f31d3ac54da09405b02d1de0ee0de648de637fbdc111123be0d7fc31f2a544c0b60405160405180910390a250565b6040518060600160405280600073ffffffffffffffffffffffffffffffffffffffff1681526020016000801916815260200160008019168152509056fea265627a7a72315820c4a77be86750bbf7b7f722daf0e4b9b184e6968af7d5fe0d9fe7bbad81ceda4d64736f6c634300050b0032",
  "source": "pragma solidity ^0.5.11;\n\n\n/**\n * @title Tracker.\n *\n * @notice Simple implementation for tracking steps by the producer and participants\n           in a supply chain for trackable items (\"trackables\").\n */\ncontract Tracker {\n\n    /* Structs */\n\n    /** Consists of a participant, an action, and the timestamp of that action was taken. */\n    struct Step {\n        address participant;\n        bytes32 action;\n        bytes32 timestamp;\n    }\n\n    /** Consists of steps and steps taken for a given trackable. */\n    struct Track {\n        uint256 count;\n        Step[] steps;\n    }\n\n\n    /* Storage */\n\n    /** Address for producer, from whom trackables originate. */\n    address public producer;\n\n    /** Flags whether an address is a participant. */\n    mapping(address => bool) public isParticipant;\n\n    /** Maps UUIDs to tracks. */\n    mapping(bytes32 => Track) public tracks;\n\n\n    /* Events */\n\n    event ParticipantAdded(\n        address indexed _participant\n    );\n\n    event StepAdded(\n        address indexed _participant,\n        bytes32 indexed _uuid,\n        uint256 _count,\n        bytes32 _action,\n        bytes32 _timestamp\n    );\n\n\n    /* Modifiers */\n\n    modifier onlyProducer() {\n        require(\n            msg.sender == producer,\n            \"msg.sender is not producer\"\n        );\n        _;\n    }\n\n    modifier canParticipate() {\n        require(\n            isParticipant[msg.sender] || msg.sender == producer,\n            \"msg.sender cannot participate\"\n        );\n        _;\n    }\n\n    /* Constructor */\n\n    /**\n     * @param _producer The value to which producer is set.\n     */\n    constructor(\n        address _producer\n    )\n        public\n    {\n        require(\n            address(_producer) != address(0),\n            \"_producer is zero\"\n        );\n\n        producer = _producer;\n    }\n\n\n    /* External Functions */\n\n    /**\n     * @dev Adds participant.\n     *\n     * @param _participant Address of non-producer participant\n     */\n    function addParticipant(\n        address _participant\n    )\n        public\n        onlyProducer\n    {\n        require(\n            address(_participant) != address(0),\n            \"_participant is zero\"\n        );\n\n        isParticipant[_participant] = true;\n\n        emit ParticipantAdded(_participant);\n    }\n\n    /**\n     * @dev Adds step to a track.\n     *\n     * @param _uuid UUID of the trackable\n     * @param _action Indicates what action was taken in the step\n     * @param _timestamp Time at which _action was taken\n     */\n    function addStep(\n        bytes32 _uuid,\n        bytes32 _action,\n        bytes32 _timestamp\n    )\n        public\n        canParticipate\n    {\n        Track storage track = tracks[_uuid];\n\n        require(\n            track.count != 0 || msg.sender == producer,\n            \"_uuid does not exist\"\n        );\n        require(\n            _action != '',\n            \"_action is empty\"\n        );\n        require(\n            _timestamp != '',\n            \"_timestamp is empty\"\n        );\n\n        track.count++;\n        track.steps.push(\n            Step(msg.sender, _action, _timestamp)\n        );\n\n        emit StepAdded(\n            msg.sender,\n            _uuid,\n            track.count,\n            _action,\n            _timestamp\n        );\n    }\n\n    /**\n     * @dev Gets step from a track.\n     *\n     * @param _uuid UUID of the trackable\n     * @param _index Index of step\n     *\n     * @return action_ and timestamp_ for step\n     */\n    function getStep(\n        bytes32 _uuid,\n        uint256 _index\n    )\n        public\n        view\n        returns(\n            address participant_,\n            bytes32 action_,\n            bytes32 timestamp_\n        )\n    {\n        Step memory step = tracks[_uuid].steps[_index];\n\n        return(\n            step.participant,\n            step.action,\n            step.timestamp\n        );\n    }\n}",
  "sourcePath": "/Users/jason/Documents/fish-tracker/contracts/Tracker.sol",
  "compiler": {
    "name": "solc",
    "version": "0.5.11+commit.c082d0b4.Emscripten.clang"
  },
  "schemaVersion": "3.0.13",
  "updatedAt": "2019-08-30T07:37:43.110Z",
  "devdoc": {
    "methods": {
      "addParticipant(address)": {
        "details": "Adds participant.",
        "params": {
          "_participant": "Address of non-producer participant"
        }
      },
      "addStep(bytes32,bytes32,bytes32)": {
        "details": "Adds step to a track.",
        "params": {
          "_action": "Indicates what action was taken in the step",
          "_timestamp": "Time at which _action was taken",
          "_uuid": "UUID of the trackable"
        }
      },
      "constructor": {
        "params": {
          "_producer": "The value to which producer is set."
        }
      },
      "getStep(bytes32,uint256)": {
        "details": "Gets step from a track.",
        "params": {
          "_index": "Index of step",
          "_uuid": "UUID of the trackable"
        },
        "return": "action_ and timestamp_ for step"
      }
    },
    "title": "Tracker."
  },
  "userdoc": {
    "methods": {},
    "notice": "Simple implementation for tracking steps by the producer and participants in a supply chain for trackable items (\"trackables\")."
  }
}